:020000040000fa
:080000000002040000000000f2
:020000040000fa
:0400080016030000db
:020000040000fa
:04000c0016030000d7
:020000040000fa
:0400100016030000d3
:020000040000fa
:0400140016030000cf
:020000040000fa
:0400180016030000cb
:020000040000fa
:04001c0016030000c7
:020000040000fa
:0400200016030000c3
:020000040000fa
:0400240016030000bf
:020000040000fa
:0400280016030000bb
:020000040000fa
:04002c0016030000b7
:020000040000fa
:0400300016030000b3
:020000040000fa
:0400340016030000af
:020000040000fa
:0400380016030000ab
:020000040000fa
:04003c0016030000a7
:020000040000fa
:0400400016030000a3
:020000040000fa
:04004400160300009f
:020000040000fa
:04004800160300009b
:020000040000fa
:04004c001603000097
:020000040000fa
:040050001603000093
:020000040000fa
:04005400160300008f
:020000040000fa
:04005800160300008b
:020000040000fa
:04005c00c8020000d6
:020000040000fa
:040060001603000083
:020000040000fa
:04006400160300007f
:020000040000fa
:04006800160300007b
:020000040000fa
:04006c001603000077
:020000040000fa
:040070001603000073
:020000040000fa
:04007400160300006f
:020000040000fa
:04007800160300006b
:020000040000fa
:04007c001603000067
:020000040000fa
:040080001603000063
:020000040000fa
:04008400160300005f
:020000040000fa
:04008800160300005b
:020000040000fa
:04008c001603000057
:020000040000fa
:040090001603000053
:020000040000fa
:04009400160300004f
:020000040000fa
:04009800160300004b
:020000040000fa
:04009c001603000047
:020000040000fa
:0400a0001603000043
:020000040000fa
:0400a400160300003f
:020000040000fa
:0400a800160300003b
:020000040000fa
:0400ac001603000037
:020000040000fa
:0400b0001603000033
:020000040000fa
:0400b400160300002f
:020000040000fa
:0400b800160300002b
:020000040000fa
:0400bc001603000027
:020000040000fa
:0400c0001603000023
:020000040000fa
:0400c400160300001f
:020000040000fa
:0400c800160300001b
:020000040000fa
:0400cc001603000017
:020000040000fa
:0400d0001603000013
:020000040000fa
:0400d400160300000f
:020000040000fa
:0400d800160300000b
:020000040000fa
:0400dc001603000007
:020000040000fa
:0400e0001603000003
:020000040000fa
:0400e40016030000ff
:020000040000fa
:0400e80016030000fb
:020000040000fa
:0400ec0016030000f7
:020000040000fa
:0400f00016030000f3
:020000040000fa
:0400f40016030000ef
:020000040000fa
:0400f80016030000eb
:020000040000fa
:0400fc0016030000e7
:020000040000fa
:0401000016030000e2
:020000040000fa
:0401040016030000de
:020000040000fa
:0401080016030000da
:020000040000fa
:04010c0016030000d6
:020000040000fa
:0401100016030000d2
:020000040000fa
:0401140016030000ce
:020000040000fa
:0401180016030000ca
:020000040000fa
:04011c0016030000c6
:020000040000fa
:0401200016030000c2
:020000040000fa
:0401240016030000be
:020000040000fa
:0401280016030000ba
:020000040000fa
:04012c0016030000b6
:020000040000fa
:0401300016030000b2
:020000040000fa
:0401340016030000ae
:020000040000fa
:0401380016030000aa
:020000040000fa
:04013c0016030000a6
:020000040000fa
:0401400016030000a2
:020000040000fa
:04014400160300009e
:020000040000fa
:04014800160300009a
:020000040000fa
:0402080016030000d9
:020000040000fa
:04020c0016030000d5
:020000040000fa
:0402100016030000d1
:020000040000fa
:0402140016030000cd
:020000040000fa
:0402180016030000c9
:020000040000fa
:04021c0016030000c5
:020000040000fa
:0402200016030000c1
:020000040000fa
:0402240016030000bd
:020000040000fa
:0402280016030000b9
:020000040000fa
:04022c0016030000b5
:020000040000fa
:0402300016030000b1
:020000040000fa
:0402340016030000ad
:020000040000fa
:0402380016030000a9
:020000040000fa
:04023c0016030000a5
:020000040000fa
:0402400016030000a1
:020000040000fa
:04024400160300009d
:020000040000fa
:040248001603000099
:020000040000fa
:04024c001603000095
:020000040000fa
:040250001603000091
:020000040000fa
:04025400160300008d
:020000040000fa
:040258001603000089
:020000040000fa
:04025c00c8020000d4
:020000040000fa
:040260001603000081
:020000040000fa
:04026400160300007d
:020000040000fa
:040268001603000079
:020000040000fa
:04026c001603000075
:020000040000fa
:040270001603000071
:020000040000fa
:04027400160300006d
:020000040000fa
:040278001603000069
:020000040000fa
:04027c001603000065
:020000040000fa
:040280001603000061
:020000040000fa
:04028400160300005d
:020000040000fa
:040288001603000059
:020000040000fa
:04028c001603000055
:020000040000fa
:040290001603000051
:020000040000fa
:04029400160300004d
:020000040000fa
:040298001603000049
:020000040000fa
:04029c001603000045
:020000040000fa
:0402a0001603000041
:020000040000fa
:0402a400160300003d
:020000040000fa
:0402a8001603000039
:020000040000fa
:0402ac001603000035
:020000040000fa
:0402b0001603000031
:020000040000fa
:0402b400160300002d
:020000040000fa
:0402b8001603000029
:020000040000fa
:0402bc001603000025
:020000040000fa
:0402c0001603000021
:020000040000fa
:0402c400160300001d
:020000040000fa
:0402c8001603000019
:020000040000fa
:0402cc001603000015
:020000040000fa
:0402d0001603000011
:020000040000fa
:0402d400160300000d
:020000040000fa
:0402d8001603000009
:020000040000fa
:0402dc001603000005
:020000040000fa
:0402e0001603000001
:020000040000fa
:0402e40016030000fd
:020000040000fa
:0402e80016030000f9
:020000040000fa
:0402ec0016030000f5
:020000040000fa
:0402f00016030000f1
:020000040000fa
:0402f40016030000ed
:020000040000fa
:0402f80016030000e9
:020000040000fa
:0402fc0016030000e5
:020000040000fa
:0403000016030000e0
:020000040000fa
:0403040016030000dc
:020000040000fa
:0403080016030000d8
:020000040000fa
:04030c0016030000d4
:020000040000fa
:0403100016030000d0
:020000040000fa
:0403140016030000cc
:020000040000fa
:0403180016030000c8
:020000040000fa
:04031c0016030000c4
:020000040000fa
:0403200016030000c0
:020000040000fa
:0403240016030000bc
:020000040000fa
:0403280016030000b8
:020000040000fa
:04032c0016030000b4
:020000040000fa
:0403300016030000b0
:020000040000fa
:0403340016030000ac
:020000040000fa
:0403380016030000a8
:020000040000fa
:04033c0016030000a4
:020000040000fa
:0403400016030000a0
:020000040000fa
:04034400160300009c
:020000040000fa
:040348001603000098
:020000040000fa
:100400004f8220000e7f22000e01880000000000b5
:10041000000020000000e000020032000001200087
:100420002002880014000700820007000000e0009e
:1004300003003a00e0922000010020000200370093
:100440000000200001002000810f70000100320038
:1004500014000700000020000000e000020032004d
:100460000000020000000000180802000000000068
:100470000040da000000fe004440a90040002000d7
:100480000000e0000300320000002000a00188000e
:100490004440a800000006008a1f78008b1f7800e7
:1004a0000000060091018800800478000000eb0045
:1004b0001a003700e284440032a0b4009905ba0063
:1004c000e284440032a0b4009906ba00e2844400f9
:1004d00032a0b4000006eb00476fde00fd07b2005b
:1004e000636ce10003003a00ebff07000000eb0043
:1004f0000a003700606ce10004003a00005deb0088
:100500008b05e900fdff3e00040037006168e10053
:10051000010032000086eb000b00070019c7ba008b
:100520001905ba000e04e00003003a000a00e000da
:10053000e0ff3a0000000600fe07b2009e018800be
:100540008a047800f5ff3700395dba008b05e900b1
:100550000c003200295dba008b05e900080032006a
:100560000c00e00003003a00e284440032a0b40032
:10057000f5ff370019ddba008b05e900faff3a00f4
:100580008904e800e184440032a0b40000000600c1
:10059000809fbe00829fbe003400f8000000200053
:1005a000a00188000000fa0085a0a9002140800079
:1005b00000102000808f50000c003a0000408000a6
:1005c000114080004c09dd004400de000000710095
:1005d000c408de0030408800414088000028ef0059
:1005e0000228ef000428ef000b00370000188000fd
:1005f0006101b8000040800011408000020040000e
:10060000838048000040880011408800204080001e
:100610000000e800204088000080fa003400f90063
:100620004f01be004f00be00004006000040da004f
:100630000000fe000000050003f0a200889fbe003d
:100640008a9fbe008c1f7800fa000700010133006a
:100650006450e1004f0032006420e100520032009b
:1006600003826c0007003b000905d0000306d000a0
:10067000820f54000c065d000200390002003200b7
:1006800089017800030678008582550004003d004a
:100690000003fd008103fd008502ea008b85420016
:1006a000840f720002003b0060001000e080180020
:1006b0006011b8000005eb007a28e1000a0039005b
:1006c00006007800c75ddd00f707b200878075007f
:1006d0002d003700828171000a01780061056000f9
:1006e0008180d1000080d3008502e900f9ff3b0042
:1006f000060440008784480002003b0060041400a8
:10070000e0841c000988a300070032008a81710080
:1007100082817100610164008904d1000884d300e2
:100720008b05e800170037000978a30013003a0092
:100730000b00e000130034008b05e90008044400be
:1007400089844c000a4474000978a3000d003a0023
:100750000b00e000070034008b05e90008044400aa
:1007600089844c0001003a000b0020000978a300a6
:10077000f7ff32000001eb000200370082817100b8
:100780000a017800700007000cf0a70001f0a0003b
:10079000b90037006420e10002003a00838f6c004a
:1007a000b90033000801be000200be00b2003700ed
:1007b000889fbe008a9fbe008c1f78009d000700a6
:1007c000a400330003866c006450e1002e00320068
:1007d0006420e100330032006150e1002f0032005c
:1007e0006120e1003100320085855500eb07b00043
:1007f0000900200008042000050037000804440018
:1008000089844c000a0031000603430087834b00b3
:100810000001530081815b00f8ff33000203be003a
:100820000800a0000804440089844c00f6ff390049
:10083000c639dd008301730001003200130020007f
:100840008904d1000884d3000998a3000500320070
:100850000800a7000300a0008904d1000884d30089
:100860008b05e8008904d1000884d3000001eb0067
:100870000281d2003400070001f0a1000cf0a700b3
:1008800001f0a0007c0037006420e1007e0032000f
:100890000801be000200be00f7ff37006120e10042
:1008a000790032006000b800f3ff3700000020003c
:1008b00001f82700f0ff37000001be0048000700e4
:1008c0000470a70003f0a1006509b1001600320012
:1008d0000d0035006828e10006003500f0ff2f000c
:1008e000f1ff27000300e00013003b000100280097
:1008f0000000050000004000818048008502e900fa
:10090000fcff3a0008003700f88f420002003c006c
:100910008000eb00000005008100d1000080d300c2
:100920008502e800fcff3a000300e00002003b0003
:1009300060001000e0801800000006004f89de0013
:10094000820178005300370081002000618055004b
:100950000b003d000b00200061fe2f000100e100b4
:100960001d00340082817100610164008904d1009e
:100970000884d3000000e800faff3a00710020006c
:100980006100640003007000020060000900320092
:1009900061044400e0844c000988a5000500320091
:1009a0008b05e8006808e10002003a008904d100e4
:1009b0000884d300f20f20000258e10005003d003a
:1009c000c75ddd00f907b200898075000800780076
:1009d000000006000bf827008b00780000000500df
:1009e000c70ade00f107b200f50fb20008003200be
:1009f000e1cf4200020032000170a0002400050097
:100a0000810f700001003200040805004400050059
:100a1000810f700002003a00140005008502e90011
:100a20000000400081c04800fcff3b000170a000b6
:100a3000240005000004be00e9ff07000003be001b
:100a40000405be000200be00e5ff0700844f7500ec
:100a5000000006000200be006450e1000500360000
:100a60006420e100020036000968a30001003a009a
:100a70000800be000160a0004f0678004f05be00d0
:100a80004f04be0000000600f0ff2f00f1ff27001a
:100a9000f9ff3700881f7800030478000300e000a6
:100aa00007003d0060001000e080180060011900a0
:100ab000e081190002003b0001f02d000300370027
:100ac0000400070008f0a70001f0a0004f04780020
:100ad00000000600889fbe008a9fbe000082700052
:100ae0000402710004827100260032000004be007e
:100af0000200be006011b8006b09200095022000c2
:100b00000182cf000a0039000541b1000082cf0008
:100b1000070039000541b1000982cf000400390007
:100b20000541b1000882cf00010039000541b10044
:100b300005425200120032000a003b00828171001f
:100b4000610164008100d1000080d3008984d3005a
:100b50000884d3008b05e8000442e800f7ff3a0060
:100b6000070037000804440089844c000000480056
:100b7000818048008b05e9000442e900f9ff3a0052
:100b800071ff07004f05be004f04be0000000600c5
:100b900080007800010178003104e000fdff3a0098
:080ba0000000510000000600f6
:020000040000fa
:080ba800302e000000000000e7
:020000040000fa
:100bb0000200fa00000f7800020037007e3e0900b4
:100bc0000000000010c0b3009e0078000100e000ab
:100bd00001003c000040eb001e0fe9000004e000b3
:100be000f6ff3a000080fa00000006000000fa005c
:100bf000d0092000a01088008a40a90017e2a800b0
:100c000080022000eaff070080c3b300160007003f
:100c100090c3b3001400070040c1b30012000700e6
:100c200000c7b3001000070060c5b3000e00070046
:100c3000c0c6b3000c000700800c2000dcff0700da
:100c400080c3b30008000700c0c0b300060007005f
:100c500010c0b3000400070020002000d4ff0700ec
:100c60000080fa00000006000200fa00004f780041
:100c70008a40a9001602a80000000000b010800001
:100c8000610060000000e000fcff3a008a40a9001b
:100c9000c007200090108800000000005004800071
:100ca000640060000000e000fcff32008a40a90000
:100cb0001222ef0000000000500480006400600079
:100cc0000000e000fcff32008a40a9001e00fb008b
:100cd0009010880000000000500480006400600054
:100ce0000000e000fcff32008a40a9001642a80084
:100cf00000000000b0108000640060000000e00010
:100d0000fcff3a000080fa00000006000400fa0030
:100d10002047980031479800ae40900060002000c6
:100d20008008dd003e40900000c040008040780018
:100d30000174a000014f78001e407800caff070030
:100d40000080fa00000006000200fa00004f780060
:100d50008a40a9001602a80000000000b010800020
:100d6000610060000000e000fcff3a008a40a9003a
:100d7000c007200090108800000000005004800090
:100d8000640060000000e000fcff32008a40a9001f
:100d90000004200090108800000000005004800033
:100da000640060000000e000fcff32008a40a900ff
:100db0001e00fb009010880000000000500480001e
:100dc000640060000000e000fcff32008a40a900df
:100dd0001642a80000000000b0108000640060000f
:100de0000000e000fcff3a000080fa00000006006e
:100df0000600fa00200798002e00900064ff07000c
:100e0000100798000000eb00000f78001602a80001
:100e100000000000b0108000610060000000e000f1
:100e2000fcff3a008a40a900c0072000901088000b
:100e30000000000050048000640060000000e0003a
:100e4000fcff32008a40a9000000eb00000f780090
:100e500015003700000c20009010880000000000f2
:100e600050048000640060000000e000fcff3200dd
:100e70008a40a9001e007800ae009000008040006b
:100e8000104078000000fb00901088000000000077
:100e900050048000640060000000e000fcff3200ad
:100ea0008a40a9001e0fe8001e0090000000e90023
:100eb0009e0f5000e7ff3c000004200090108800c7
:100ec0000000000050048000640060000000e000aa
:100ed000fcff32008a40a9001e0090000000e900db
:100ee000ae00900000804000104078000000fb0041
:100ef0009010880000000000500480006400600032
:100f00000000e000fcff32008a40a9001642a80061
:100f100000000000b0108000640060000000e000ed
:100f2000fcff3a000080fa00000006000000fa0012
:100f3000c022a8002c23a9004119800000ff2f0027
:100f4000008060000000a000401988004119800066
:100f5000f00f2f00008060000080a0004019880082
:100f600011198000f0ff21000080600000d0a00077
:100f70001019880010c0b30024e3b70001198000e5
:100f8000000e200001007000001988002119800067
:100f9000f00f2e00008060000080a0002019880063
:100fa00001198000f0cf2f00008060000019880038
:100fb0002043a8001119800030fc2f000080600041
:100fc0001019880021e3a80085a0a90095a0a80019
:100fd0000080fa00000006000000fa00213a8000bc
:100fe000f08f2f0000806000203a88000080eb0026
:100ff00060198800fdfe070056000700cbff0700c0
:101000000021ef000421ef0021088000f0fc2f00f8
:10101000008060000050a0002008880030422f00af
:101020001008880005e1a8000080fa000000060012
:101030002400fa00e8ff07003040800041408000b3
:10104000100798008040eb000040eb002fff0700e6
:10105000405d280066ff07000000eb00000f7800ed
:101060000f003700d10020001e8050009e0090002d
:101070000008de0061006000004078000004e0002d
:101080000200320010c3b3000100370000c3b300f8
:10109000e40047009e804000804878001e0fe80072
:1010a0001e007800e50f5000eeff34000040eb001a
:1010b000204f980021c0b3000040eb0013ff070051
:1010c000640047004aff07000000eb00000f7800b3
:1010d0000f003700710020001e8050009e0090001d
:1010e0000008de0061006000004078000004e000bd
:1010f0000200320010c3b3000100370000c3b30088
:10110000e40047009e804000804878001e0fe80001
:101110001e007800e70f5000eeff34000040eb00a7
:10112000404f98008040eb0010c0b300f7fe07006e
:10113000640047002eff0700000000000108800047
:10114000701a2600808f5000fcff36000021ef004f
:10115000b9ff37000200fa000000eb00000f780032
:10116000070037001e00780080004000c08020008b
:10117000008040008000eb00010878001e0fe800ae
:101180001e007800eb0f5000f6ff34000080fa00dc
:10119000000006000200fa00000f780050408000b6
:1011a00000014000c1802000810041009e087800bd
:1011b0000000e8005040880050408000eb0f5000d5
:1011c000010034000a28ef000080fa000000060049
:1011d0000a00fa006000b800008fbe000000eb00bb
:1011e000200798000e0037002e009000800040007d
:1011f000c08020000080400010007800cf80de001a
:10120000cefd07000001be001e00be000bfd070062
:10121000008fbe002e0090000000e800200798001c
:101220002e009000eb0f5000efff34000200200072
:10123000031424001e00be005dfd07003007980067
:10124000410798003e009000ce0090009afd0700f4
:0c125000000078000080fa00000006009a
:020000040000fa
:10125c00000800000a000000000000000c0800005c
:10126c0018000000000000000a0800000200000046
:08127c0000000000000000006a
:020000040000fa
:020000040001f9
:0457f8000ff90000a5
:020000040000fa
:020000040001f9
:0457fc007f3f0000eb
:00000001FF
